:1000000010C02AC029C028C027C026C025C024C0CF
:1000100024C022C021C020C01FC01EC01DC01CC0E3
:100020001BC011241FBECFE5D1E0DEBFCDBF10E065
:10003000A0E6B0E0E8ECF3E002C005900D92A03637
:10004000B107D9F710E0A0E6B0E001C01D92A936D3
:10005000B107E1F7A5D1B6C1D3CF1F920F920FB66A
:100060000F9211242F933F934F935F936F937F933E
:100070008F939F93AF93BF93EF93FF938091620011
:1000800090916300892F8695992787FD909590938D
:1000900061008093600080916000909161008CBF4E
:1000A00080916000909161001FD1109263001092C6
:1000B0006200FF91EF91BF91AF919F918F917F91DE
:1000C0006F915F914F913F912F910F900FBE0F90C5
:1000D0001F901895DA9ADB9A0895D79ABA9A80B742
:1000E000836080BF80B7806280BF80B7806880BF38
:1000F00082E083BF8FE78CBF86BF08958EB5816095
:100100008EBD609A08958EB581608EBD8EB5886073
:100110008EBD82EE94E09BBD8ABD619A089580B742
:100120008F7780BF089580B7806880BF0895D99A7F
:10013000D19A0895FC01DA011C9280818623E9F7A7
:10014000F8948CE18A95F1F7000088E38A95F1F73D
:1001500000C08081862319F08C9181608C9388E3A4
:100160008A95F1F700C08081862319F08C91826016
:100170008C9388E38A95F1F700C08081862319F07B
:100180008C9184608C9388E38A95F1F700C080811C
:10019000862319F08C9188608C9388E38A95F1F717
:1001A00000C08081862319F08C9180618C9388E354
:1001B0008A95F1F700C08081862319F08C918062C6
:1001C0008C9388E38A95F1F700C08081862319F02B
:1001D0008C9180648C9388E38A95F1F700C08081CC
:1001E000862319F08C9180688C9388E38A95F1F7C7
:1001F00000C08CE18A95F1F7000078940895FC0125
:10020000F8948081262F20958223808338E33A95C5
:10021000F1F700C0842F992787FD9095308180FFEA
:1002200002C0362B01C03223308338E33A95F1F710
:1002300000C0308181FF02C0362B01C032233083E1
:1002400038E33A95F1F700C0308182FF02C0362BC7
:1002500001C03223308338E33A95F1F700C0308192
:1002600083FF02C0362B01C03223308338E33A9536
:10027000F1F700C0308184FF02C0362B01C0322369
:10028000308338E33A95F1F700C0308185FF02C032
:10029000362B01C03223308338E33A95F1F700C0A2
:1002A00086FF03C08081862B02C0808182238083E9
:1002B00088E38A95F1F700C0808147FF02C0862B52
:1002C00001C08223808338E33A95F1F700C0808132
:1002D000862B808388E38A95F1F700C038E33A954E
:1002E000F1F700C078940895482F8BE390E062E026
:1002F00086DF0895EF92FF921F93CF93DF937C01E7
:10030000162FEA011092650010926400E0916400DB
:10031000F0916500EC0FFD1F449140936600C7010A
:10032000612F6DDF8091640090916500019690933C
:1003300065008093640080916600882339F7DF911F
:10034000CF911F91FF90EF900895EF92FF920F933E
:100350001F93CF937C01C62F8A01109268001092E0
:100360006700E0916700F0916800E00FF11FC7019E
:100370006C2F408144DF8091670090916800019666
:100380009093680080936700800F911FFC0180812B
:10039000882339F7CF911F910F91FF90EF90089527
:1003A00099DE9BDEC4DEAADE1CBE7894CA99FECF1D
:1003B0008091620090916300019690936300809316
:0803C0006200F4CFF894FFCFB6
:00000001FF
